:100000000C94CB070C94EE070C94EE070C94EE07BF
:100010000C94EE070C94EE070C94EE070C94EE078C
:100020000C94EE070C94EE070C94EE070C94EE077C
:100030000C94EE070C94EE070C94EE070C94EE076C
:100040000C945A090C94EE070C94EE070C94EE07EE
:100050000C94EE070C94EE070C94EE070C94EE074C
:1000600009100910091009101710711099100710C4
:1000700099100710071007100910A3110710091095
:10008000091007104110551007100710071007102E
:100090000710CC102F11071043119311BB11E2165A
:1000A000F6162E1787179E17552F552F552FA31667
:1000B000101828183A186918552F7D18552F552FE4
:1000C000A618C8180C19711AE61ABE1B6B1CC61CA0
:1000D000711A552F711A552F4F1D552F552F552F0A
:1000E000552F552F552F552F552F552F552F552FF0
:1000F000552F552F552F552F552F552F552F552FE0
:10010000552F552F552F552F8E1BBE1B6B1C0C19B1
:10011000711AE61AB61D841E201F7B1FDF1F3F20A9
:100120009F20C818EA18552F0C210C214521552F66
:10013000552F201F7B1FDF1F3F209F205521552F4C
:10014000A821B9211022552F552F3022552F552F78
:100150007822C322FF227523552FBE235824DC2486
:100160003D257D25F02521269226D9263B2762278D
:10017000F627C429702A552FC62AEB2A152B4F2B98
:10018000552F552F852B552F552F4F2BDB2B552FAB
:10019000552F552F422C702CAB2C552F552F552FEA
:1001A000552FD62C6C2E20203C6D6F64756C653EEF
:1001B0002E002020257328290A00202025732829B5
:1001C000205F5F4E41544956455F5F0A002020552D
:1001D0006E61626C6520746F20676574206E617457
:1001E0006976652066756E63206E616D652E0054BC
:1001F000726163656261636B2028746F7020666949
:10020000727374293A0020204C696E654E756D3A00
:100210002025640A00202046696C6549643A202044
:100220003078253032580A00202052656C656173A1
:10023000653A203078253032580A004572726F7264
:100240003A20202020203078253032580A000AF841
:1002500000004003000406030300617672030400FB
:100260006464724103010069030500706F72744198
:1002700003050064656C61790304006D61696E04B7
:1002800009030C0048656C6C6F20776F726C642EEC
:1002900001FFFFFFFF00032600436F756E74696E58
:1002A000672066726F6D203020746F2032343920E1
:1002B0006F6E20706F72744127732070696E7301C6
:1002C000FF000000010000000001FA000000010131
:1002D000000000030500446F6E652E64000047486F
:1002E0006401006402006B00005A000064030047D0
:1002F0004865000069010064040083010001640591
:10030000005A02007836006502006406006A0000A8
:100310006F28000165000069030065020083010089
:1003200001650000690400640600830100016502A4
:1003300000640700375A0200712C0001576408005E
:100340004748640200530A9C000040010004070370
:1003500007005F5F646F635F5F030500706F727417
:100360004103040064647241030B006469676974AB
:10037000616C52656164030C006469676974616C47
:10038000577269746503050064656C617903030045
:100390006176720407000B01FFFF0B01FEFF0B02E9
:1003A000FDFF0B03FCFF0B01FBFF006400005A0084
:1003B000006401008400005A01006402008400000F
:1003C0005A02006403008400005A0300640400849D
:1003D00000005A04006405008400005A0500640609
:1003E0000053FF0AA40100400100001700040803A5
:1003F0000600617070656E64030500636F756E744E
:10040000030600657874656E64030500696E6465B3
:1004100078030600696E73657274030300706F7071
:1004200003060072656D6F76650304006C69737472
:10043000030C0009170908090509220927093703D0
:100440000F002E2E2F6C69622F6C6973742E7079D9
:100450000004080B0200000A7A0002430304002E85
:10046000000401030500636F756E74030C00000146
:100470000601070006010D011201030F002E2E2FA9
:100480006C69622F6C6973742E707900040300012B
:1004900000000000010100000004006401007D0272
:1004A000007829007C0000445D21007D03007C036E
:1004B000007C01006A02006F0E00017C02006402F1
:1004C00000177D0200710D0001710D00577C0200C4
:1004D000530A6000024304030036000402030600CE
:1004E000617070656E64030600657874656E640300
:1004F0000600000107000601030F002E2E2F6C6975
:10050000622F6C6973742E70790004010004007806
:100510001B007C0100445D13007D02007400007C20
:1005200000007C0200830200017107005764000094
:10053000530B0201000B0302000B0203000B020429
:10054000000004006400008400005A000064010000
:100550008400005A01006402008400005A02006412
:1005600003008400005A03006404008400005A045D
:10057000006405008400005A050064060084000041
:100580005A0600640700530AF000004001000013FF
:10059000000405030500636C6561720304006B656C
:1005A00079730307006861735F6B657903060076F2
:1005B000616C756573030400646963740306000964
:1005C00018092B0907030F002E2E2F6C69622F6468
:1005D0006963742E70790004050B0105000B010698
:1005E000000A6700024303020056000402030400ED
:1005F0006B6579730307006861735F6B6579030648
:1006000000000113010502030F002E2E2F6C6962FA
:100610002F646963742E70790004030001010000E7
:1006200000010000000004007C01007400007C0058
:10063000008301006A06006F050001640100530198
:1006400064020053640000530B01070000040064BF
:1006500000008400005A00006401008400005A0178
:10066000006402008400005A020064030084000059
:100670005A0300640400530AD60500400300001921
:1006800000041803030061627303030063687203CC
:1006900003006469720304006576616C03060066FA
:1006A000696C746572030700676C6F62616C730339
:1006B000020069640303006C656E0306006C6F63DF
:1006C000616C730303006D61700303006F72640358
:1006D0000300706F7703050072616E6765030300A6
:1006E00073756D03040074797065030200436F0332
:1006F00008005F5F6E616D655F5F0306006F626A91
:10070000656374030900457863657074696F6E03EF
:100710000E00417373657274696F6E4572726F7209
:10072000030400636F646503090047656E657261C9
:10073000746F7203060069736D61696E0304005F74
:100740005F6269032C0009050926095B0964090435
:100750000915091B09430915090E09220904096134
:10076000095A092509230606130716031602090B61
:1007700016A2030F002E2E2F6C69622F5F5F626935
:100780002E707900041D0A4800014303010019007E
:1007900004010303006162730302000002030F00FF
:1007A0002E2E2F6C69622F5F5F62692E70790004B4
:1007B0000200010000000004007C00007C00000B2F
:1007C0006602007C00006401006A000019530B01FE
:1007D00008000B0109000B030A000A610002430430
:1007E00004000301040103060066696C746572036A
:1007F00002000001030F002E2E2F6C69622F5F5F35
:1008000062692E7079000401000400670000047D15
:1008100002007C0100445D1E007D03007C00007C22
:1008200003008301006F0B00017C02007C030012B7
:10083000710B0001710B007E0200530B000B000BCB
:10084000010C000B010D000B000E000A9900024381
:100850000405008F0104030304004E6F6E6503035B
:10086000006C656E0303006D6170030E00000213DF
:100870000306010700060110010E03030F002E2ED0
:100880002F6C69622F5F5F62692E7079000403002C
:100890000100000000010100000004006400006786
:1008A00001007401007C0100830100147D020064DA
:1008B00001007D03007828007C0100445D20007D5C
:1008C00004007C00007C04008301007C02007C03A7
:1008D000003C7C0300640200377D03007120005758
:1008E0007C0200530B010F000A3600024302020093
:1008F000BF010401030300706F77030200000103CE
:100900000F002E2E2F6C69622F5F5F62692E707947
:100910000004010004007C00007C010013530B0361
:1009200010000B0111000B0112000B011300030357
:10093000005442440306006F626A6563740A500003
:100940000042010000CC0204030308005F5F6E61F7
:100950006D655F5F030A005F5F6D6F64756C655F57
:100960005F0306006F626A65637403020006010399
:100970000F002E2E2F6C69622F5F5F62692E7079D7
:1009800000040004006500005A01005253030900EE
:10099000457863657074696F6E0A53000042010008
:1009A00000D30204030308005F5F6E616D655F5F43
:1009B000030A005F5F6D6F64756C655F5F0309001C
:1009C000457863657074696F6E0302000601030F5A
:1009D000002E2E2F6C69622F5F5F62692E70790086
:1009E000040004006500005A01005253030E004148
:1009F0007373657274696F6E4572726F720A580014
:100A00000042010000D60204030308005F5F6E612C
:100A10006D655F5F030A005F5F6D6F64756C655F96
:100A20005F030E00417373657274696F6E45727275
:100A30006F720302000601030F002E2E2F6C6962F5
:100A40002F5F5F62692E707900040004006500006A
:100A50005A0100525301E400000003090047656E8B
:100A6000657261746F720ADD000042010000E302EA
:100A700004060308005F5F6E616D655F5F030A0037
:100A80005F5F6D6F64756C655F5F0308005F5F6932
:100A90006E69745F5F0304006E657874030400730D
:100AA000656E6403090047656E657261746F720359
:100AB0000600060209370904030F002E2E2F6C6969
:100AC000622F5F5F62692E70790004030B021400CD
:100AD0000A4A0001430201001C03040303040073DB
:100AE000656E640304004E6F6E650304006E6578E6
:100AF000740302000001030F002E2E2F6C69622F79
:100B00005F5F62692E70790004010004007C0000C0
:100B1000690000640000830100530B02150004000B
:100B20006500005A01006400008400005A0200645D
:100B300001008400005A03006402008400005A048B
:100B40000052530B001600000400040064000084EF
:100B500000005A00006401008400005A0100640291
:100B6000008400005A02006403008400005A03005D
:100B70006404008400005A04006405008400005AE4
:100B800005006406008400005A0600640700840023
:100B9000005A07006408008400005A080064090035
:100BA0008400005A0900640A008400005A0A0064A4
:100BB0000B008400005A0B00640C008400005A0CE7
:100BC00000640D008400005A0D00640E00840000D3
:100BD0005A0E00640F008400005A0F006410005A7F
:100BE0001000641100641C00641200840000830083
:100BF00000595A1100641300651100660100641465
:100C000000840000830000595A1200641500651228
:100C100000660100641600840000830000595A1326
:100C2000006417006513005F14006418006511006C
:100C3000660100641900840000830000595A150001
:100C4000641A008400005A1600641B00530A5801FD
:100C500000400100001D00040A0306006D61786970
:100C60006E7403040065786974030200676303040B
:100C700000676574620304006865617003040070B6
:100C8000757462030B0072756E496E54687265610B
:100C90006403040074696D6503040077616974037B
:100CA0000300737973031000060309230918091A56
:100CB00009300921091E0926030E002E2E2F6C690A
:100CC000622F7379732E707900040A01FFFFFF7F92
:100CD0000B0117000B0018000B0019000B001A0085
:100CE0000B011B000B011C000B001D000A6400011E
:100CF000430202000A01040203040074696D6503E3
:100D000004007761697403080000010D01030010FD
:100D100001030E002E2E2F6C69622F7379732E70D3
:100D2000790004010004007400008300007C0000CE
:100D3000177D01007815007400008300007C01001D
:100D40006A00006F04000171100001576400005335
:100D50000004006400005A00006401008400005A8E
:100D600001006402008400005A0200640300840051
:100D7000005A03006404008400005A040064050063
:100D80008400005A05006406008400005A060064CE
:100D900007008400005A07006408008400005A0815
:100DA00000640900530AEF0100400200001700042C
:100DB000090307005F5F646F635F5F030600646998
:100DC0006769747303090068657864696769747397
:100DD0000307006C65747465727303040061746FBB
:100DE00069030500636F756E7403040066696E64C1
:100DF0000304006A6F696E030600737472696E679C
:100E0000030E0006030601060106070945095709F6
:100E10003B0311002E2E2F6C69622F737472696E62
:100E2000672E707900040A00030A0030313233342F
:100E300035363738390316003031323334353637EA
:100E40003839616263646566414243444546033410
:100E5000006162636465666768696A6B6C6D6E6F7A
:100E6000707172737475767778797A41424344452C
:100E7000464748494A4B4C4D4E4F5051525354559A
:100E8000565758595A0B021E000B021F000B022026
:100E900000030100200AB9000243030500FA000420
:100EA000020303006C656E0304006A6F696E03142D
:100EB0000000010C010D0105010A01060103000DEE
:100EC0000112010F010311002E2E2F6C69622F7386
:100ED0007472696E672E70790004040001000000CE
:100EE00000030000010100000004007400007C0009
:100EF000008301007D02007C02006401006A0200A0
:100F00006F05000164020053017C000064010019B8
:100F10007D03006403007D0400782E007C04007CC7
:100F200002006A00006F2000017C03007C010017B2
:100F30007C00007C040019177D03007C040064031E
:100F400000377D040071310001577C030053000419
:100F5000006400005A00006401005A0100640200AD
:100F60005A02006403005A03006404008400005A1B
:100F700004006405008400005A0500640600840033
:100F8000005A06006407006408008401005A070044
:100F900064090053FF0011241FBECFEFDFE0DEBF66
:100FA000CDBF11E0A0E6B0E0E2EDFDEB0FEF039561
:100FB0000BBF04C0D8950D923196C8F3AE3EB10771
:100FC000C9F71BBE1FE0AEEEB1E001C01D92AC3709
:100FD000B107E1F70E94F0070C94E75E0C94000063
:100FE00081E06EE472E00E94BB37882321F480E642
:100FF00090E00E94733790E008958CE089B988E111
:101000008AB985E690E09093790F8093780F90935A
:10101000770F8093760F9093750F8093740F80B73E
:10102000877F80BF83B7887F83BF83B7826083BF9A
:1010300080E008958AB1877E8AB913BE80E0089562
:10104000A62FB72F813059F0813020F0823081F007
:1010500080E00895ED91FC911197819106C0ED918A
:10106000FC911197C895802D3196ED93FC930895CE
:101070002D913C911197E199FECF3FBB2EBBE09A99
:101080008DB32F5F3F4F2D933C9308955F9BFECF11
:101090008CB15C9B03C02EEF3FEF07C05B9B03C08E
:1010A0002FEF3FEF02C0282F30E0822F932F0895BB
:1010B0005D9BFECF8CB980E090E00895E82FF92F7A
:1010C0005F9BFECF8BB1887111F082EE08958CB1D9
:1010D000808380E008955D9BFECF8CB980E0089509
:1010E000E82FF92F2FB7F8948091260F9091270FB2
:1010F000A091280FB091290F80839183A283B3839D
:101100002FBF80E00895CF92DF92EF92FF920F936E
:101110001F93DF93CF9300D0CDB7DEB700D000D0C0
:10112000EDB7FEB731962BE332E0ADB7BEB71296FE
:101130003C932E931197828313820E94AD5A209183
:10114000690FEDB7FEB7319688E292E0ADB7BEB752
:1011500012969C938E931197228313820E94AD5A0C
:1011600020916A0FEDB7FEB7319685E192E0ADB7F9
:10117000BEB712969C938E931197228313820E947E
:10118000AD5A20916B0F30916C0F86E092E0EDB775
:10119000FEB792838183348323830E94AD5A0F90DC
:1011A0000F900F900F908FEE91E00E94D55AE09132
:1011B0006F0FF091700F02811381FFE00F341F0752
:1011C00009F05DC0E091530FF091540F0280F3815C
:1011D000E02D848195816FEF7FEF4C2F5D2F4F5F66
:1011E0005F4F0E941F41882319F08DEC91E055C09C
:1011F00000D000D08AEB91E0ADB7BEB712969C93B9
:101200008E93119789819A81069614969C938E935A
:1012100013970E94AD5A0091510F1091520F0F90E9
:101220000F900F900F902BC0A02FB12F1496ED911F
:10123000FC9115970280F381E02D848195816FEFF9
:101240007FEF4C2D5D2D0E941F41882321F500D09A
:1012500000D0EDB7FEB7F282E18289819A810696CD
:10126000948383830E94AD5AA02FB12F12960D91C3
:101270001C9113970F900F900F900F9009C0CC2ED8
:10128000DD2E0894C11CD11C82EBE82E81E0F82EE3
:101290000115110549F686EA91E00E94D55A0F9092
:1012A0000F90CF91DF911F910F91FF90EF90DF9002
:1012B000CF9008951F920F920FB60F9211242F9383
:1012C0003F934F935F936F937F938F939F93AF93CE
:1012D000BF93EF93FF9380E092E00E941237FF915B
:1012E000EF91BF91AF919F918F917F916F915F919E
:1012F0004F913F912F910F900FBE0F901F90189517
:10130000A82FB92F8091580F8130B9F4E091590F6F
:10131000F0915A0F8081918180709E73805092402D
:1013200061F482818C938091320F9091330F90936E
:10133000560F8093550F80E008958DEE08950F931A
:101340001F93CF93DF93C82FD92FA62FB72F622FCC
:10135000732F0091590F10915A0FE02FF12F8081B8
:10136000918180709E738050964009F08EC02091CC
:101370005B0F30915C0FE22FF32F808191818070A1
:101380009E738050924009F080C0E02FF12F82813F
:101390009381019709F07BC08681863409F465C08A
:1013A000873488F4833409F460C0843430F48134A1
:1013B000E9F0823409F06BC028C08434A9F1853487
:1013C00009F065C040C0833609F44FC0843630F45C
:1013D000813661F0823609F05AC017C0853699F11E
:1013E000853610F1863609F052C03FC0109721F0C3
:1013F0008BE390E08D939C93209721F089E390E01C
:10140000998388838AE390E02CC0109721F088E3C9
:1014100090E08D939C93209721F086E390E0998350
:10142000888387E390E01DC0109721F082E390E06D
:101430008D939C93209721F080E390E0998388839B
:1014400081E390E00EC0109721F083E290E08D934D
:101450009C93209721F081E290E09983888382E237
:1014600090E0E42FF52F91838083E22FF32F828188
:101470009381A481B58188309105A105B10538F427
:10148000E62FF72F808380E003C08DEE01C08EEE43
:10149000DF91CF911F910F9108958CEE0895809167
:1014A000580F8130B9F4E091590FF0915A0F8081B3
:1014B000918180709E738050924061F482818ABBDA
:1014C0008091320F9091330F9093560F8093550F68
:1014D00080E008958DEE0895DF93CF9300D000D083
:1014E0000F92CDB7DEB78091580F823011F03DEEEC
:1014F00039C08C2F9D2F029660E070E04C2F5D2F3D
:101500004C5F5F4F2C2F3D2F2F5F3F4F0E949F0955
:10151000382F882339F5EC81FD81208181E090E02E
:10152000098002C0880F991F0A94E2F780958223F0
:101530008083EA81FB81808190E0098002C09595DB
:1015400087950A94E2F780FF05C080913C0F909147
:101550003D0F04C080913A0F90913B0F9093560F2E
:101560008093550F832F0F900F900F900F900F9037
:10157000CF91DF910895DF93CF9300D000D00F92E9
:10158000CDB7DEB78091320F9091330F9093560F05
:101590008093550F8091580F833009F054C080E03C
:1015A00090E06C2F7D2F6E5F7F4F4C2F5D2F4C5F37
:1015B0005F4F2C2F3D2F2F5F3F4F0E949F09382FE9
:1015C000882309F041C0A0915D0FB0915E0F8D910D
:1015D0009C91119780709E73892F992786958130F1
:1015E000910511F00F9779F5EC81FD81208141E0A3
:1015F00050E0842F952F098002C0880F991F0A940C
:10160000E2F7282B208312968D919D910D90BC912D
:10161000A02D2981EA81FB810097A105B10541F048
:10162000808102C0440F551F2A95E2F7842B09C020
:10163000908102C0440F551F2A95E2F7842F8095B0
:101640008923808301C03DEE832F0F900F900F9070
:101650000F900F90CF91DF910895AF92BF92CF92EC
:10166000DF92EF92FF920F931F938091580F81307A
:1016700011F02DEEABC0E091590FF0915A0F80811F
:10168000918180709E73892F99278695813091056D
:1016900009F043C062817381848195810E947156F3
:1016A000A62EB72EC82ED92E20E030E04AE754E40B
:1016B0000E94C154E62EF72E082F192F20E030E0AB
:1016C00040E85FE30E943A5688230CF444C0912F0F
:1016D000802F7F2D6E2D20E03FEF4FE757E40E94D3
:1016E000CC5518160CF05FC09D2D8C2D7B2D6A2DCE
:1016F00020E030E040E251E40E94C1540E94A9522F
:1017000084E690E006C0E82FF92F3197F1F7615099
:10171000704061157105B9F750C0029711F02DEEB8
:101720004DC0A280B380C480D5809D2D8C2D7B2D93
:101730006A2D20E030E04AE754E40E94C154E62ECE
:10174000F72E082F192F20E030E040E85FE30E94D9
:101750003A5688231CF461E070E02BC0912F802F53
:101760007F2D6E2D20E03FEF4FE757E40E94CC55D0
:101770001816CCF49D2D8C2D7B2D6A2D20E030E0A9
:1017800040E251E40E94C1540E94A95284E690E0D4
:1017900006C0E82FF92F3197F1F7615070406115BD
:1017A0007105B9F70AC0912F802F7F2D6E2D0E94F1
:1017B000A952862F972F0197F1F720E08091320FE1
:1017C0009091330F9093560F8093550F822F1F9156
:1017D0000F91FF90EF90DF90CF90BF90AF90089562
:1017E000DF93CF9300D0CDB7DEB7A82FB92FE42F6A
:1017F000F52F8091580F882319F0813051F512C0D0
:10180000608170E080E090E04C2F5D2F4F5F5F4F74
:101810000E94C614282F89819A819093560F809335
:10182000550F18C0E091590FF0915A0F80819181A6
:1018300080709E738050924061F48091320F90913D
:10184000330F9093560F8093550F82818C9320E035
:1018500001C02DEE822F0F900F90CF91DF91089550
:101860008BE390E06AE370E049E350E00E94F00B04
:101870000895EF92FF920F931F93DF93CF93CDB70D
:10188000DEB72E970FB6F894DEBF0FBECDBF1A821B
:1018900019828FE790E09C838B8384E890E09E839D
:1018A0008D838AE890E098878F831A8619868091C5
:1018B000990090919A009E878D8780E06C2F7D2FF4
:1018C000635F7F4F40E050E021E030E00C2F1D2FA0
:1018D000075F1F4F0E94D83F882309F078C0898591
:1018E0009A856C2F7D2F655F7F4F0E949C338823E4
:1018F00009F06DC08B859C850E94D91581E00E94FE
:101900005E16882309F063C0EB85FC858481958190
:101910009093410F8093400F80E06C2F7D2F6D5F7F
:101920007F4F40E050E021E030E0EC2EFD2E0894A7
:10193000E11CF11C0E2D1F2D0E94D83F882309F0B9
:1019400046C08091400F9091410F4091320F5091CD
:10195000330F69817A810E94534F8823C1F56C2F20
:101960007D2F6B5F7F4F40E050E021E030E00E9430
:10197000D83F882361F58091400F9091410F4091AD
:101980003A0F50913B0F69817A810E94534F88230F
:10199000F1F46C2F7D2F695F7F4F40E050E021E034
:1019A00030E00E94D83F882391F48091400F9091BD
:1019B000410F40913C0F50913D0F69817A810E9407
:1019C000534F882321F48B859C850E94BD0F2E9652
:1019D0000FB6F894DEBF0FBECDBFCF91DF911F9140
:1019E0000F91FF90EF900895EF92FF920F931F9346
:1019F000DF93CF9300D000D00F92CDB7DEB7E82EA3
:101A0000F92E1B821A828091990090919A009D83F1
:101A10008C838091400F9091410F892B11F40E948B
:101A2000390C80E06C2F7D2F6C5F7F4F40E050E0E1
:101A300021E030E00C2F1D2F0E5F1F4F0E94D83F7A
:101A4000182F8823C1F48A819B816C2F7D2F6F5FB3
:101A50007F4F0E9412124091400F5091410F6A81B6
:101A60007B81EE2DFF2D848195810E94534F182F8D
:101A700089810E942912812F0F900F900F900F9053
:101A80000F90CF91DF911F910F91FF90EF900895EC
:101A9000CF92DF92EF92FF920F931F93DF93CF933A
:101AA00000D000D000D0CDB7DEB78FE890E09A83A9
:101AB000898382E39FE060E042E450E00E94DE3BE5
:101AC00088E08093690F0C2F1D2F0D5F1F4F86E05C
:101AD00090E0602F712F0E94CB13382F882309F0DC
:101AE00000C1EB81FC81FE83ED8380819181917C3B
:101AF0009260918380831282138214821582F09304
:101B0000350FE093340F86E090E0602F712F0E9434
:101B1000CB13382F882309F0E4C0EB81FC81FE83CE
:101B2000ED8380819181917C92609183808381E0BB
:101B3000C82ED12CE12CF12CC282D382E482F58212
:101B4000F093370FE093360F86E090E0602F712F0F
:101B50000E94CB13382F882309F0C3C0EB81FC818E
:101B6000FE83ED8380819181917C9260918380835B
:101B70008FEF9FEFAFEFBFEF82839383A483B58393
:101B8000F093390FE093380F86E090E0602F712FCB
:101B90000E94CB13382F882309F0A3C0EB81FC816E
:101BA000FE83ED8380819181917C9E61918380830E
:101BB0001282138214821582F0933B0FE0933A0F46
:101BC00086E090E0602F712F0E94CB13382F88237E
:101BD00009F087C0EB81FC81FE83ED8380819181D8
:101BE000917C9E6191838083C282D382E482F5825C
:101BF000F0933D0FE0933C0F82E090E0602F712F57
:101C00000E94CB13382F882309F06BC0EB81FC8135
:101C1000FE83ED8380819181917C91838083F09319
:101C2000330FE093320F80E06C2F7D2F6F5F7F4F7B
:101C300040E050E021E030E00C2F1D2F0B5F1F4FE4
:101C40000E94D83F382F882309F04BC08D819E8198
:101C500090933F0F80933E0F1092410F1092400FD0
:101C600080914F0F9091500F97FF03C08070907C30
:101C700002C080709E7F86609093500F80934F0FBC
:101C800080914F0F9091500F917C9C639093500FD7
:101C900080934F0F1092540F1092530F1092560FC3
:101CA0001092550F1092570F1092580F8C2F9D2F96
:101CB00005960E94E130382F8D819E8190936E0FA2
:101CC00080936D0F21E02093420F83EE93E0909379
:101CD000470F8093460F20934E0F1092710F109272
:101CE000720F832F26960FB6F894DEBF0FBECDBFBE
:101CF000CF91DF911F910F91FF90EF90DF90CF90E8
:101D00000895CF93DF93C82FD92F2091F00E3091F3
:101D1000F10E8881998197FD01C09170880F991FFC
:101D2000880F991F820F931F9093F10E8093F00EEE
:101D3000E091EE0EF091EF0E309749F4D093EF0E54
:101D4000C093EE0E1D821C821B821A8253C08881B2
:101D5000998197FF03C0482F592F03C0482F592F4F
:101D60005170440F551F440F551F2081318137FF9B
:101D700003C0822F932F03C0822F932F9170880F5F
:101D8000991F880F991F8417950738F484819581CE
:101D9000009719F0E82FF92FE8CF37FF03C0822F03
:101DA000932F03C0822F932F9170880F991F880F54
:101DB000991F8417950748F4848195819D838C83AE
:101DC000D583C483FB83EA8315C0FD83EC838281C2
:101DD00093819B838A83A281B381109729F4D09346
:101DE000EF0EC093EE0E04C01596DC93CE931497BD
:101DF000D383C28380E0DF91CF910895EF92FF9269
:101E00000F931F93CF93DF93082F192FE62EF72EF2
:101E1000C091EE0ED091EF0E03C00C80DD81C02D7D
:101E2000209769F08881998197FD01C09170880F92
:101E3000991F880F991F8017910778F394C0EE2D92
:101E4000FF2D1182108289EE87C09170880F991F33
:101E5000880F991F281B390B3093F10E2093F00E39
:101E6000EC81FD81309721F08A819B81938382836D
:101E7000EA81FB818C819D81309729F49093EF0E4C
:101E80008093EE0E02C0958384832881398137FFC9
:101E900003C0822F932F03C0822F932F9170880F3E
:101EA000991F880F991F801B910B089708F43DC05C
:101EB000EC2FFD2FE00FF11F208131813068207061
:101EC000307C318320838881998197FD01C0917096
:101ED000880F991F880F991F801B910B96958795E6
:101EE00096958795822B932B918380838E2F9F2F9E
:101EF0000E94810E882381F58881998197FF03C014
:101F00008070907C02C080709E7F99838883169534
:101F100007951695079511708881998180709E7735
:101F2000802B912B9983888303C031743983288354
:101F30008091F20E28813981882321F0822F932FFE
:101F4000906403C0822F932F9F7B99838883EE2D0B
:101F5000FF2DD183C08380E0DF91CF911F910F913E
:101F6000FF90EF9008952091F00E3091F10E88814E
:101F7000998199230CF069CF69CFE82FF92F8081DF
:101F800091819068917C918380838E2F9F2F0E94F6
:101F9000810E08958091F00E9091F10E0895CF92E8
:101FA000DF92EF92FF920F931F93CF93DF93082F4F
:101FB000192F0115110509F422C2A02FB12F4D913F
:101FC0005C916091F20E842F952F892F96E0869573
:101FD0009A95E9F781709070262F30E08217930769
:101FE00009F40DC2842F952F80709E73892F8695DA
:101FF000E82FF0E0EF31F10550F4E05DFF4FEE0F18
:10200000FF1FC895E3950F92C8950F9208959CEE17
:10201000FBC1662321F0842F952F906403C0842F89
:10202000952F9F7BE02FF12F91838083E8C1A02F14
:10203000B12F1296ED90FC901397662321F0842F18
:10204000952F906403C0842F952F9F7BE02FF12F55
:1020500091838083CE2DDF2D2196CC0FDD1FC00F05
:10206000D11F09C0888199810E94CF0F982F229794
:10207000882309F0C9C10894E108F108F7FEF2CFFE
:10208000BEC1662321F0842F952F906403C0842F56
:10209000952F9F7BA02FB12F11969C938E93149612
:1020A0008C91149715969C9161C1662321F0842F21
:1020B000952F906403C0842F952F9F7BE02FF12FE5
:1020C00091838083848195810E94CF0F982F8823EC
:1020D00009F09AC1A02FB12F16960D911C91179758
:1020E00068CF662321F0842F952F906403C0842F3E
:1020F000952F9F7BE02FF12F9183808384819581A1
:102100000E94CF0F982F882309F07EC1A02FB12FF6
:1021100016968D919C9117970E94CF0F982F882328
:1021200009F072C1E02FF12F8285882309F06CC17C
:1021300007C1662321F0842F952F906403C0842F5C
:10214000952F9F7BA02FB12F11969C938E93129663
:102150008D919C9113970E94CF0F982F882309F09F
:1021600053C1E02FF12F848195810E94CF0F982FCA
:10217000882309F049C1A02FB12F16968D919C910B
:1021800017970E94CF0F982F882309F03DC1E02FA9
:10219000F12F008511850DCF662321F0842F952F17
:1021A000906403C0842F952F9F7BA02FB12F119691
:1021B0009C938E931496ED91FC9115970280F38178
:1021C000E02D848585FD0AC012968D919C91139710
:1021D0000E94CF0F982F882309F016C1E02FF12F0E
:1021E000848195810E94CF0F982F882309F00CC11C
:1021F000A02FB12F19968D919C911A970E94CF0F05
:10220000982F882309F000C1E02FF12F8385948552
:102210000E94CF0F982F882309F0F6C0A02FB12F6E
:102220001D968D919C911E970E94CF0FF82E8823AA
:1022300009F0E7C0C02FD12F629609C0888199812B
:102240000E94CF0F982F882309F0DEC02296E02F3E
:10225000F12F87859089C817D90780F3D2C06623EC
:1022600021F0842F952F906403C0842F952F9F7B9E
:10227000A02FB12F11969C938E9317968C91179740
:1022800018969C9173C0662321F0842F952F90643B
:1022900003C0842F952F9F7BE02FF12F91838083A4
:1022A000C680D78002811381EE24FF2438C0CE2D52
:1022B000DF2DC770D070EC2FFD2F3196EE0FFF1F72
:1022C000E00FF11F808191810E94CF0F982F88230A
:1022D00009F09AC02097A1F48091F20EA02FB12F9F
:1022E0002D913C91882321F0822F932F906403C07D
:1022F000822F932F9F7BE02FF12F918380830CC03F
:10230000279751F4A02FB12F52960D911C915397FE
:102310000115110509F478C00894E11CF11CEC14B6
:10232000FD042CF26CC0662321F0842F952F90645D
:1023300003C0842F952F9F7BE02FF12F9183808303
:102340000281138136CE662321F0842F952F90646D
:1023500003C0842F952F9F7BA02FB12F11969C93A4
:102360008E9312968C91129713969C91282F392F49
:10237000022F132F1ECE662321F0842F952F9064F9
:1023800003C0842F952F9F7BE02FF12F91838083B3
:102390008091570F882399F18091510F9091520F9E
:1023A0000E94CF0F982F882379F58091530F909139
:1023B000540F0E94CF0F982F882331F58091550F2D
:1023C0009091560F0E94CF0F182F8823E1F4C0E0A0
:1023D000D0E00EC0EC2FFD2FEE0FFF1FE45CF04F9E
:1023E000858D968D0E94CF0F982F882369F42196B2
:1023F0008091580F90E0C817D90764F304C090E0AB
:1024000003C09F2D01C0912F892FDF91CF911F9184
:102410000F91FF90EF90DF90CF9008958093F30E8F
:1024200080E00895282F392FE62FF72F8091240F71
:10243000883170F480838091240FE82FF0E0EE0F54
:10244000FF1FEC50F14F318320838F5F8093240F67
:1024500008958093240F0895AF92BF92CF92DF9298
:10246000EF92FF920F931F93DF93CF9300D0CDB7DE
:10247000DEB78091F20E91E089278093F20E809171
:10248000320F9091330F0E94CF0F882309F076C14D
:1024900080913A0F90913B0F0E94CF0F882309F053
:1024A0006DC180913C0F90913D0F0E94CF0F88230A
:1024B00009F064C18091340F9091350F0E94CF0FC5
:1024C000882309F05BC18091360F9091370F0E94ED
:1024D000CF0F882309F052C18091380F9091390FA6
:1024E0000E94CF0F882309F049C180913E0F90913F
:1024F0003F0F0E94CF0F882309F040C18091400F09
:102500009091410F0E94CF0F882309F037C18FE4CB
:102510009FE00E94CF0F882309F030C180916D0F9A
:1025200090916E0F0E94CF0F882309F027C110E011
:102530000EC0E12FF0E0EE0FFF1FEC50F14F808155
:1025400091810E94CF0F882309F018C11F5F8091ED
:10255000240F181770F31091F20E8C2F9D2F0196F7
:102560000E94EF3BA981BA81109739F43CC0848165
:10257000958111969C938E9302C0612F70E0ED912E
:10258000FC911197309779F18181282F229526951A
:102590002695237030E0422F532F4170507046171C
:1025A000570729F71CC014968D919C911597958318
:1025B0008483A481B581109791F011968C91119725
:1025C000282F229526952695237030E0822F932F71
:1025D000817090708417950731F7EA2FFB2F848163
:1025E0009581892B31F7AEEEB1E0BEC03170220F7C
:1025F000331F220F331FA20FB31F2D913C91119750
:1026000037FD10C0822F932F892F96E086959A95DB
:10261000E9F7817090708C159D0521F48EE0AE3E37
:10262000B80720F3EEE0AE3EBE0708F0A6C0BA2E13
:10263000AB2E6091F00E7091F10EF090EE0EE090E6
:10264000EF0E2A2F3B2F022F132F40E050E05BC0EC
:10265000822F932F03C0822F932F9170880F991F81
:10266000880F991F840F951F8D5F9F4F08F05EC0E4
:1026700037FF03C0822F932F03C0822F932F9170B7
:10268000880F991F880F991F480F591F37FF24C0C3
:10269000220F331F220F331F621B730BE02FF12F0A
:1026A000248135812115310531F082819381E22F1A
:1026B000F32F93838283E02FF12F22813381848152
:1026C00095812115310519F4F82EE92E0BC0E22F62
:1026D000F32F8483958306C0317C3068E02FF12F7F
:1026E00031832083E02FF12F8081918197FD01C0FC
:1026F0009170880F991F880F991F080F191FFEE00E
:102700000E3E1F0798F4E02FF12F2081318137FD15
:102710009FCF822F932F892F96E086959A95E9F780
:10272000817090708C159D0509F095CF7093F10E16
:102730006093F00EF092EE0EE092EF0E8D919C9170
:10274000119790688070907C56954795569547955F
:10275000482B592B4D935C938B2D9A2D0E94810E03
:10276000882361F4A02FB12FFEE0AE3EBF0728F40E
:102770008091F20EC82EDD2440CF80E00F900F90A4
:10278000CF91DF911F910F91FF90EF90DF90CF904D
:10279000BF90AF9008950F931F93CF93DF93062FB1
:1027A000172F27E08D3F920710F099EE26C0883052
:1027B000910510F488E090E0C82FD92F2396CC7FA4
:1027C0008C2F9D2F602F712F0E94FE0E982F893E17
:1027D000A1F48091F30E813081F48091570F88230A
:1027E00061F40E942C12982F882339F48C2F9D2F8E
:1027F000602F712F0E94FE0E982F892FDF91CF91AD
:102800001F910F9108951092EF0E1092EE0E1092FC
:10281000F10E1092F00E1092F20E1092240F81E041
:102820008093F30E8091EE019091EF01807090748F
:10283000806493689093EF018093EE018EEE91E0B7
:102840000E94810E0E94E93B80E008951F93182F9B
:10285000982F92959F70892F805D8A3308F0895D4B
:102860000E946B08882349F4912F9F70892F805D07
:102870008A3308F0895D0E946B081F910895CF93F9
:10288000DF93C82FD92F8D2F992787FD9A950E9406
:102890002614882319F48C2F0E942614DF91CF91DF
:1028A0000895E82FF92F828193810E943F140895A3
:1028B000DF92EF92FF920F931F93DF93CF93CDB7E9
:1028C000DEB72C970FB6F894DEBF0FBECDBF482FF2
:1028D000592FA82FB92F8D919C9180709E73805095
:1028E000924011F08DEE44C0EDB7FEB73A970FB6A7
:1028F000F894FEBF0FBEEDBF3196EC2EFD2E08946E
:10290000E11CF11CADB7BEB71296FC92EE92119786
:102910008CE090E0938382838BE990E095838483BD
:10292000A42FB52F12962D913D914D915C91159745
:1029300026833783408751870E94125BD82E0E2D45
:102940001F2DEDB7FEB73A960FB6F894FEBF0FBE37
:10295000EDBF09C0A02FB12F8D910A2F1B2F0E9410
:102960006B08882329F4802F8E198D1598F380E049
:102970002C960FB6F894DEBF0FBECDBFCF91DF917E
:102980001F910F91FF90EF90DF900895EF92FF92CB
:102990000F931F93CF93DF93E62EF72E082F192F57
:1029A000C42FD52F611571058105910529F48091FA
:1029B000340F9091350F0AC081E0E816F10401054B
:1029C000110541F48091360F9091370F99838883D8
:1029D00020E023C08FEFE8168FEFF8068FEF08078F
:1029E0008FEF180729F48091380F9091390FEECFAF
:1029F00086E090E0642F752F0E94CB13282F882348
:102A000061F4E881F98180819181917C9260918368
:102A10008083E282F38204831583822FDF91CF913A
:102A20001F910F91FF90EF900895AF92BF92CF92B8
:102A3000DF92EF92FF920F931F93CF93DF93E82FD4
:102A4000F92FA62FB72FC42FD52F808191818070A9
:102A50009E738050924081F58D919C91119780706A
:102A60009E738050924041F5A280B380C480D5808F
:102A70001296ED90FD900D911C91159717FF02C0D5
:102A80008EEE1BC061E070E080E090E00BC05D2D39
:102A90004C2D3B2D2A2D0E941E5E0894E108F10862
:102AA00001091109E114F1040105110581F74C2F09
:102AB0005D2F0E94C61401C08DEEDF91CF911F9152
:102AC0000F91FF90EF90DF90CF90BF90AF9008955F
:102AD000E82FF92F462F572F8081918180709E73A8
:102AE0008050924011F08DEE08956281738184814F
:102AF000958160957095809590950E94C614089573
:102B0000E82FF92F462F572F8081918180709E7377
:102B10008050924011F08DEE08956281738184811E
:102B2000958190958095709561957F4F8F4F9F4FC0
:102B30000E94C6140895E82FF92F462F572F808141
:102B4000918180709E738050924011F08DEE0895B7
:102B500062817381848195810E94C61408950F93C8
:102B60001F93CF93DF93082F192FC62FD72F86E0FF
:102B700090E00E94CB13282F882391F4E881F981FB
:102B800080819181917C926091838083C02FD12F2D
:102B90008A819B81AC81BD8182839383A483B58329
:102BA000822FDF91CF911F910F9108958093730F22
:102BB00008951F93DF93CF9300D000D000D0CDB7FE
:102BC000DEB76C2F7D2F6D5F7F4F0E94D150182F85
:102BD000882339F58B819C816C2F7D2F6F5F7F4F10
:102BE0000E9412128B819C816C2F7D2F6B5F7F4F17
:102BF0000E94F340182F882389F48D819E816C2FC9
:102C00007D2F6E5F7F4F0E94121280916D0F909109
:102C10006E0F6D817E810E946931182F89810E941B
:102C20002912812F26960FB6F894DEBF0FBECDBFB6
:102C3000CF91DF911F910895DF93CF9300D0CDB74F
:102C4000DEB7E0916D0FF0916E0F82819381892B39
:102C500029F41092700F10926F0F27C08091250FEA
:102C60008F5F8093250FE0916D0FF0916E0F90E0D4
:102C7000228133818217930714F01092250F8091DF
:102C80006D0F90916E0F6091250F70E04C2F5D2FAE
:102C90004F5F5F4F0E94752F282F89819A819093F3
:102CA000700F80936F0F222319F41092730F20E09E
:102CB000822F0F900F90CF91DF9108952F923F9226
:102CC0005F926F927F928F929F92AF92BF92CF92BC
:102CD000DF92EF92FF920F931F93DF93CF93CDB7C5
:102CE000DEB72C970FB6F894DEBF0FBECDBF582EBF
:102CF0001C821B821E821D8218861F821A861986DC
:102D00000E941C16882319F0F82E0C943C2FFF24E7
:102D100095E0A92EB12CAC0EBD1E8C2E9D2E0894D4
:102D2000811C911C87E0C82ED12CCC0EDD1EEE2418
:102D3000E39402E0202E312C2C0E3D1E13E0612E78
:102D4000712C6C0E7D1E80916F0F9091700F892BEE
:102D500031F4552011F40C94352F0C943C2F8091B4
:102D6000730F882339F00E941C16F82E882311F067
:102D70000C943C2FE0916F0FF091700FA0916F0FAA
:102D8000B091700F0280F381E02D12966D917C91CD
:102D90001397695F7F4F86810E942008182F90E06B
:102DA000E82FF92F3197E438F10510F00C94552FE6
:102DB000E15BFF4FEE0FFF1FC895E3950F92C8959B
:102DC0000F920895E0916F0FF091700FA281B3817F
:102DD0001F96ED91FC91509732975096FC93EE938D
:102DE0001F97808191819C838B83ADCFE0916F0F82
:102DF000F091700F0280F381E02D0784F089E02DBF
:102E00003297808191819C838B83E0916F0FF09149
:102E1000700F80916F0F9091700F0280F381E02D01
:102E2000A785B0891297E82FF92F82819381E82F27
:102E3000F92F878590890497E82FF92F8081918158
:102E40008D939C93E0916F0FF091700F0280F3814E
:102E5000E02D0784F089E02D349754C0E0916F0F86
:102E6000F091700F0280F381E02D0784F089E02D4E
:102E70003297808191819C838B83E0916F0FF091D9
:102E8000700F80916F0F9091700F0280F381E02D91
:102E9000A785B0891297E82FF92F82819381E82FB7
:102EA000F92F878590890497E82FF92F80819181E8
:102EB0008D939C93E0916F0FF091700F80916F0F45
:102EC0009091700F0280F381E02DA785B08914974F
:102ED000E82FF92F82819381E82FF92F8785908938
:102EE0000697E82FF92F808191818D939C93E09133
:102EF0006F0FF091700F0280F381E02D0784F0894D
:102F0000E02D36978B819C81918380831CCFE0914B
:102F10006F0FF091700F0280F381E02D0784F0892C
:102F2000E02D3297808191819C838B83E0916F0F9C
:102F3000F091700FA281B3810C94092FE0916F0F73
:102F4000F091700F0280F381E02D0784F089E02D6D
:102F50003297808191819C838B83E0916F0FF091F8
:102F6000700F80916F0F9091700F0280F381E02DB0
:102F7000A785B0891297E82FF92F82819381E82FD6
:102F8000F92F878590890497E82FF92F8081918107
:102F90008D939C93E0916F0FF091700F80916F0F64
:102FA0009091700F0280F381E02DA785B08914976E
:102FB000E82FF92F82819381E82FF92F8785908957
:102FC0000697E82FF92F808191818D939C93E09152
:102FD0006F0FF091700F80916F0F9091700F0280C2
:102FE000F381E02DA785B0891697E82FF92F82810C
:102FF0009381E82FF92F878590890897E82FF92F7B
:10300000808191818D939C93E0916F0FF091700F6F
:103010000280F381E02D0784F089E02D389772CF8C
:10302000E0916F0FF091700F0280F381E02D078423
:10303000F089E02D32970190F081E02D808191811F
:1030400080709E738050924011F00C94612F7BCE63
:10305000E0916F0FF091700F0280F381E02D0784F3
:10306000F089E02D3297808191816A2D7B2D0E941D
:1030700080153BC5E0916F0FF091700FA281B38175
:103080001F96ED91FC91509732975096FC93EE93DA
:103090001F97808191819C838B830E94F6338823C4
:1030A00061F0E0916F0FF091700FA281B381809178
:1030B0003C0F90913D0F0C94092FE0916F0FF09110
:1030C000700FA281B38180913A0F90913B0F0C94C5
:1030D000092FE0916F0FF091700F0280F381E02DC6
:1030E0000784F089E02D3297808191816C2D7D2DB0
:1030F0000E942A34F82E0C94E427E0916F0FF0918F
:10310000700F0280F381E02D0784F089E02D329763
:103110000190F081E02D8081918180709E738050BC
:10312000924011F00C94612FE0916F0FF091700FAD
:103130000280F381E02D0784F089E02D32978081B1
:1031400091816A2D7B2D0E946815CFC4E0916F0F8D
:10315000F091700F80916F0F9091700F0280F3814A
:10316000E02DA785B0891497E82FF92F82819381EC
:10317000E82FF92F878590890297E82FF92F608132
:1031800071818D919C910E946931F82E0C944D248F
:10319000E0916F0FF091700F80916F0F9091700F11
:1031A0000280F381E02DA785B0891497E82FF92FCD
:1031B00082819381E82FF92F878590890297E82FE4
:1031C000F92F608171818D919C914C2D5D2D0E9414
:1031D0001515EFC6E0916F0FF091700F0280F3812B
:1031E000E02D0784F089E02D329780819181662D52
:1031F000772D0E946B3AF82E882311F00C94172F2C
:10320000E0916F0FF091700F0280F381E02D078441
:10321000F089E02D329776CEE0916F0FF091700F2C
:103220000280F381E02D0784F089E02D3297019030
:10323000F081E02D8081918180709E73805092405A
:1032400009F045C0E0916F0FF091700F0280F3819B
:10325000E02D0784F089E02D34970190F081E02D76
:103260008081918180709E738050924081F5809121
:103270006F0F9091700FE0916F0FF091700F0280BF
:10328000F381E02D0784F089E02D32972081318190
:10329000A82FB92F12968D919C911397A82FB92F13
:1032A0001F96ED91FC91509734970190F081E02D9D
:1032B000A22FB32F12966D917D918D919C911597B0
:1032C00022813381448155810E941E5E6EC6E09149
:1032D0006F0FF091700F0280F381E02D0784F08969
:1032E000E02D32970190F081E02D808191818070F6
:1032F0009E738050924009F03FC0E0916F0FF091B3
:10330000700F0280F381E02D0784F089E02D34975F
:103310000190F081E02D8081918180709E738050BA
:10332000944251F5E0916F0FF091700F0280F3819C
:10333000E02D0784F089E02D32970190F081E02D97
:10334000828193819A87898797FF02C01A8619869E
:10335000E0916F0FF091700F0280F381E02D0784F0
:10336000F089E02D349769857A85808191814C2D93
:103370005D2D0E94BA311DC6E0916F0FF091700F64
:103380000280F381E02D0784F089E02D32970190CF
:10339000F081E02D8081918180709E7380509240F9
:1033A00009F03FC0E0916F0FF091700F0280F38140
:1033B000E02D0784F089E02D34970190F081E02D15
:1033C0008081918180709E738050984051F5E0918A
:1033D0006F0FF091700F0280F381E02D0784F08968
:1033E000E02D32970190F081E02D828193819A87C0
:1033F000898797FF02C01A861986E0916F0FF091B6
:10340000700F0280F381E02D0784F089E02D34975E
:1034100069857A85808191814C2D5D2D0E94A7411F
:10342000C8C5E0916F0FF091700F0280F381E02D1D
:103430000784F089E02D32970190F081E02D8081A2
:10344000918180709E738050924011F00C94612F96
:10345000E0916F0FF091700F0280F381E02D0784EF
:10346000F089E02D34970190F081E02D80819181E9
:1034700080709E738050964011F00C94612FE09103
:103480006F0FF091700F0280F381E02D0784F089B7
:10349000E02D32970190F081E02D828193819A870F
:1034A000898797FF02C01A861986E0916F0FF09105
:1034B000700F0280F381E02D0784F089E02D3497AE
:1034C0008081918106969E838D8329853A8580E04F
:1034D0006A2D7B2D40E050E00C2D1D2D0E94D83F21
:1034E00068C5E0916F0FF091700F0280F381E02DBD
:1034F0000784F089E02D32970190F081E02D8081E2
:10350000918180709E738050924011F00C94612FD5
:10351000E0916F0FF091700F0280F381E02D07842E
:10352000F089E02D34970190F081E02D8081918128
:1035300080709E738050924011F00C94612FE09146
:103540006F0FF091700F0280F381E02D0784F089F6
:10355000E02D32970190F081E02D82819381A4814A
:10356000B5810097A105B10511F40C945B2FE09192
:103570006F0FF091700FA0916F0FB091700F0280DC
:10358000F381E02D0784F089E02D349780819181CB
:103590001296ED91FC9113970784F089E02D3297F4
:1035A0000190F081E02DA82FB92F12966D917D9199
:1035B0008D919C91159722813381448155810E9480
:1035C000625E952F842F732F622FEFC4E0916F0FEF
:1035D000F091700F0280F381E02D0784F089E02DD7
:1035E00034970190F081E02D8081918180709E73ED
:1035F0008050964011F5E0916F0FF091700F80911F
:103600006F0F9091700F0280F381E02DA785B08934
:103610001497E82FF92F82819381E82FF92F87855E
:1036200090890297E82FF92F608171818D919C918B
:103630004C2D5D2D0E94853CBCC4E0916F0FF09134
:10364000700F0280F381E02D0784F089E02D32971E
:103650000190F081E02D8081918180709E73805077
:10366000924011F00C94612FE0916F0FF091700F68
:103670000280F381E02D0784F089E02D34970190DA
:10368000F081E02D8081918180709E738050924006
:1036900011F00C94612FE0916F0FF091700F028088
:1036A000F381E02D0784F089E02D32970190F081BD
:1036B000E02D82819381A481B5810097A105B10598
:1036C00011F40C945B2FE0916F0FF091700FA091AB
:1036D0006F0FB091700F0280F381E02D0784F089A5
:1036E000E02D3497808191811296ED91FC91139792
:1036F0000784F089E02D32970190F081E02DA82F0A
:10370000B92F12966D917D918D919C911597228183
:103710003381448155810E94625E47C4E0916F0FFE
:10372000F091700F80916F0F9091700F20916F0F3B
:103730003091700F0280F381E02DA785B089169734
:10374000E82FF92F82819381E82FF92F87859089BF
:103750000297E82FF92F60817181E22FF32F828188
:103760009381E82FF92F878590890497E82FF92F07
:10377000408151818D919C910C944624E0916F0F72
:10378000F091700F0280F381E02D0784F089E02D25
:1037900032970190F081E02D8081918180709E733D
:1037A0008050924009F047C0E0916F0FF091700F88
:1037B0000280F381E02D0784F089E02D3497019099
:1037C000F081E02D8081918180709E7380509240C5
:1037D00091F580916F0F9091700FE0916F0FF091C4
:1037E000700F0280F381E02D0784F089E02D32977D
:1037F00020813181A82FB92F12968D919C9113971A
:10380000A82FB92F1F96ED91FC91509734970190F6
:10381000F081E02DA22FB32F12966D917D918D91A5
:103820009C9115972281338144815581620F731FCA
:10383000841F951FBAC3E0916F0FF091700F028043
:10384000F381E02D0784F089E02D32970190F0811B
:10385000E02D8081918180709E738050964011F0A0
:103860000C94612FE0916F0FF091700F0280F38143
:10387000E02D0784F089E02D34970190F081E02D50
:103880008081918180709E738050964011F00C94DD
:10389000612FE0916F0FF091700F80916F0F9091F9
:1038A000700F0280F381E02DA785B0891497E82F6F
:1038B000F92F82819381E82FF92F878590890297CC
:1038C000E82FF92F608171818D919C914C2D5D2D98
:1038D0000E941A3F6EC3E0916F0FF091700F02804B
:1038E000F381E02D0784F089E02D32970190F0817B
:1038F000E02D8081918180709E738050924011F004
:103900000C94612FE0916F0FF091700F0280F381A2
:10391000E02D0784F089E02D34970190F081E02DAF
:103920008081918180709E738050924011F00C9440
:10393000612FE0916F0FF091700FA0916F0FB09118
:10394000700F0280F381E02D0784F089E02D349719
:10395000808191811296ED91FC9113970784F089F3
:10396000E02D32970190F081E02DA82FB92F12960B
:103970006D917D918D919C91159722813381448128
:103980005581621B730B840B950B0FC3E0916F0F76
:10399000F091700F0280F381E02D0784F089E02D13
:1039A00034970190F081E02D8081918180709E7329
:1039B0008050964211F5E0916F0FF091700F809159
:1039C0006F0F9091700F0280F381E02DA785B08971
:1039D0001497E82FF92F82819381E82FF92F87859B
:1039E00090890297E82FF92F608171818D919C91C8
:1039F0004C2D5D2D0E94B94EDCC2E0916F0FF0910D
:103A0000700F0280F381E02D0784F089E02D32975A
:103A10000190F081E02D8081918180709E738050B3
:103A20009240B9F0E0916F0FF091700F0280F38136
:103A3000E02D0784F089E02D32970190F081E02D90
:103A40008081918180709E7380509E4111F00C9412
:103A5000612FE0916F0FF091700F0280F381E02DE4
:103A60000784F089E02D3497808191819C838B833A
:103A7000E0916F0FF091700F0280F381E02D0784C9
:103A8000F089E02D32970190F081E02D6281738101
:103A90007A8769874C2D5D2D0E94B03A8AC2E091E9
:103AA0006F0FF091700F0280F381E02D0784F08991
:103AB000E02D32970190F081E02D8081918180701E
:103AC0009E738050944221F5E0916F0FF091700F3A
:103AD0000280F381E02D0784F089E02D3297808108
:103AE00091816A2D7B2D0E944732F82E882311F098
:103AF0000C94172FE0916F0FF091700F0280F381FB
:103B0000E02D0784F089E02D32978D819E81FCC9DC
:103B1000E0916F0FF091700F0280F381E02D078428
:103B2000F089E02D32970190F081E02D8081918124
:103B300080709E738050964009F405C9E0916F0F24
:103B4000F091700F0280F381E02D0784F089E02D61
:103B500032970190F081E02D8081918180709E7379
:103B60008050984011F00C94612FEDC8E0916F0FD8
:103B7000F091700F0280F381E02D0784F089E02D31
:103B800034970190F081E02D8081918180709E7347
:103B90008050944209F061C0E0916F0FF091700F76
:103BA0000280F381E02D0784F089E02D32970190A7
:103BB000F081E02D8081918180709E7380509240D1
:103BC000B9F0E0916F0FF091700F0280F381E02D5A
:103BD0000784F089E02D32970190F081E02D8081FB
:103BE000918180709E7380509E4111F00C94612FE2
:103BF000E0916F0FF091700F80916F0F9091700FA7
:103C000020916F0F3091700F0280F381E02DA78516
:103C1000B0891497E82FF92F82819381E82FF92F2B
:103C2000878590890297E82FF92F80819181E82F6D
:103C3000F92F62817381E22FF32F82819381E82F24
:103C4000F92F878590890697E82FF92F40815181B8
:103C50008D919C910E94BC3047C0E0916F0FF09114
:103C6000700F0280F381E02D0784F089E02D3497F6
:103C70000190F081E02D8081918180709E73805051
:103C8000964211F00C94612FE0916F0FF091700F3C
:103C900080916F0F9091700F20916F0F3091700F86
:103CA0000280F381E02DA785B0891497E82FF92FC2
:103CB00082819381E82FF92F878590890297E82FD9
:103CC000F92F60817181E22FF32F82819381E82F98
:103CD000F92F878590890697E82FF92F4081518128
:103CE0008D919C910E94534FF82E882311F00C94D3
:103CF000172FE0916F0FF091700F0280F381E02D8C
:103D0000878590890697B5C6E0916F0FF091700F87
:103D10000280F381E02D0784F089E02D3497019033
:103D2000F081E02D8081918180709E73805094425B
:103D3000C9F5E0916F0FF091700F0280F381E02DD3
:103D40000784F089E02D32970190F081E02D808189
:103D5000918180709E738050924021F5E0916F0FA9
:103D6000F091700F80916F0F9091700F0280F3812E
:103D7000E02DA785B0891497E82FF92F82819381D0
:103D8000E82FF92F878590890297E82FF92F8081F6
:103D90009181E82FF92F628173818D919C910E940E
:103DA000F12F76C5E0916F0FF091700F0280F381D3
:103DB000E02D0784F089E02D34970190F081E02D0B
:103DC0008081918180709E738050964211F00C9496
:103DD000612FE0916F0FF091700F0280F381E02D61
:103DE0000784F089E02D32970190F081E02D8081E9
:103DF000918180709E738150924210F00C94612FDB
:103E0000E0916F0FF091700F80916F0F9091700F94
:103E10000280F381E02DA785B0891497E82FF92F50
:103E200082819381E82FF92F878590890297E82F67
:103E3000F92F608171818D919C910E94144F28C54A
:103E4000E0916F0FF091700F0280F381E02D0784F5
:103E5000F089E02D32970190F081E02D80819181F1
:103E600080709E738050924011F00C94612FE0910D
:103E70006F0FF091700F0280F381E02D0784F089BD
:103E8000E02D34970190F081E02D80819181807048
:103E90009E738050924011F00C94612FE0916F0F4F
:103EA000F091700FA0916F0FB091700F0280F381AD
:103EB000E02D0784F089E02D34978081918112965E
:103EC000ED91FC9113970784F089E02D32970190D2
:103ED000F081E02DA82FB92F12966D917D918D91D3
:103EE0009C911597028004C0660F771F881F991F49
:103EF0000A94D2F75AC0E0916F0FF091700F0280D0
:103F0000F381E02D0784F089E02D32970190F08154
:103F1000E02D8081918180709E738050924011F0DD
:103F20000C94612FE0916F0FF091700F0280F3817C
:103F3000E02D0784F089E02D34970190F081E02D89
:103F40008081918180709E738050924011F00C941A
:103F5000612FE0916F0FF091700FA0916F0FB091F2
:103F6000700F0280F381E02D0784F089E02D3497F3
:103F7000808191811296ED91FC9113970784F089CD
:103F8000E02D32970190F081E02DA82FB92F1296E5
:103F90006D917D918D919C911597028004C09595AE
:103FA0008795779567950A94D2F74C2D5D2D0E94E1
:103FB000C614F82E882311F00C94172F20C1E0911D
:103FC0006F0FF091700F0280F381E02D0784F0896C
:103FD000E02D32970190F081E02D808191818070F9
:103FE0009E738050924011F00C94612FE0916F0FFE
:103FF000F091700F0280F381E02D0784F089E02DAD
:1040000034970190F081E02D8081918180709E73C2
:104010008050924011F00C94612F80916F0F90911D
:10402000700FE0916F0FF091700F0280F381E02D1F
:104030000784F089E02D329720813181A82FB92F94
:1040400012968D919C911397A82FB92F1F96ED91E1
:10405000FC91509734970190F081E02DA22FB32F5F
:1040600012966D917D918D919C911597228133814E
:1040700044815581622373238423952396CFE09155
:104080006F0FF091700F0280F381E02D0784F089AB
:10409000E02D32970190F081E02D80819181807038
:1040A0009E738050924011F00C94612FE0916F0F3D
:1040B000F091700F0280F381E02D0784F089E02DEC
:1040C00034970190F081E02D8081918180709E7302
:1040D0008050924011F00C94612F80916F0F90915D
:1040E000700FE0916F0FF091700F0280F381E02D5F
:1040F0000784F089E02D329720813181A82FB92FD4
:1041000012968D919C911397A82FB92F1F96ED9120
:10411000FC91509734970190F081E02DA22FB32F9E
:1041200012966D917D918D919C911597228133818D
:1041300044815581622773278427952736CFE091E4
:104140006F0FF091700F0280F381E02D0784F089EA
:10415000E02D32970190F081E02D80819181807077
:104160009E738050924011F00C94612FE0916F0F7C
:10417000F091700F0280F381E02D0784F089E02D2B
:1041800034970190F081E02D8081918180709E7341
:104190008050924011F00C94612F80916F0F90919C
:1041A000700FE0916F0FF091700F0280F381E02D9E
:1041B0000784F089E02D329720813181A82FB92F13
:1041C00012968D919C911397A82FB92F1F96ED9160
:1041D000FC91509734970190F081E02DA22FB32FDE
:1041E00012966D917D918D919C91159722813381CD
:1041F00044815581622B732B842B952BD6CEE09175
:104200006F0FF091700F0280F381E02D8785908908
:104210000297908B8787DBC68091710F882351F0BE
:10422000173441F480E20E946B08F82E882311F0C5
:104230000C94172FE092710FE0916F0FF091700FB7
:104240000280F381E02D0784F089E02D3297808190
:10425000918160E0163409F461E040E00E948B3403
:10426000F82E882311F00C94172FE0916F0FF09126
:10427000700F0280F381E02D878590890297908BE3
:104280008787163411F00C94A3161092710F809149
:10429000720F882311F40C94672E8AE00E946B0839
:1042A000F82E1092720F0C94672EE0916F0FF09120
:1042B000700F0280F381E02D018512850DC0802FE3
:1042C000912F0D831E83022F132F0E94BD0FF82EF6
:1042D000882311F00C94172FE02FF12F8681813065
:1042E00029F0278130852115310549F7FF2011F08C
:1042F0000C94172FE0916F0FF091700F0280F381F3
:10430000E02DA02FB12F12968D919C911397908B39
:104310008787E0916F0FF091700F0280F381E02D9D
:1043200014968D919C91159790878783E0916F0FDC
:10433000F091700F0280F381E02D17968D919C9182
:10434000189792878187802F912F0E94BD0FD2C32B
:10435000E0916F0FF091700FA281B381E0916F0F28
:10436000F091700F0280F381E02D838594850C9489
:10437000092FE0916F0FF091700FA281B3811F960A
:10438000ED91FC91509732975096FC93EE931F97C6
:10439000408151815E834D83E0916F0FF091700FEA
:1043A000228133813C832B83E0916F0FF091700F5A
:1043B0000280F381E02D82819381892B41F4E09189
:1043C0006F0FF091700F1482FF240C941A2FA0919C
:1043D0006F0FB091700FE0916F0FF091700F02802E
:1043E000F381E02D8281938113969C938E93129793
:1043F000E22FF32F818980FD10C0E0916F0FF091C3
:10440000700FA281B3811F96ED91FC91509741935B
:1044100051935096FC93EE931F978B819C8160C0C3
:10442000E0916F0FF091700FA0916F0FB091700F2E
:10443000828193811296ED91FC9113970784F08904
:10444000E02D32970190F081E02D64817581A82FD5
:10445000B92F1B968D919C911C970E94F04FFAC228
:10446000E0916F0FF091700F0280F381E02D2185B4
:1044700032853C832B83E0916F0FF091700FA091F8
:104480006F0FB091700F428153811296ED91FC91A4
:1044900013970184F285E02D87819085E42FF52F15
:1044A00092878187E0916F0FF091700F0280F38106
:1044B000E02DA22FB32F12968D919C911397908B84
:1044C0008787E0916F0FF091700F0280F381E02DEC
:1044D00014968D919C91159790878783822F932FA7
:1044E0000E94BD0F882311F00C94152F0C94A31675
:1044F000E0916F0FF091700FA0916F0FB091700F5E
:104500000280F381E02D12966D917C911397695F83
:104510007F4F86810E947332282F392F3A8729874F
:10452000E0916F0FF091700F0280F381E02D048015
:10453000F581E02D0280F381E02D0480F581E02DEE
:104540002E5F3F4F220F331FE20FF31F60817181F7
:104550007E836D83E0916F0FF091700FA0916F0FCC
:10456000B091700F828193811296ED91FC91139717
:104570000784F089E02D329740815181E82FF92F8F
:104580008385948565C2E0916F0FF091700FA091C3
:104590006F0FB091700F0280F381E02D12966D9134
:1045A0007C911397695F7F4F86810E947332282F19
:1045B000392F3A872987E0916F0FF091700F0280B1
:1045C000F381E02D0480F581E02D0280F381E02D60
:1045D0000480F581E02D2E5F3F4F220F331FE20F45
:1045E000F31F608171817E836D83E0916F0FF09185
:1045F000700F0280F381E02D8385948579C2E0916C
:104600006F0FF091700FA281B3811F96ED91FC9115
:10461000509732975096FC93EE931F97808191812B
:104620009C838B836C2F7D2F675F7F4F0E944A3A5C
:10463000F82E8823B1F0E0916F0FF091700FA091E8
:104640006F0FB091700F0280F381E02D12966D9183
:104650007C911397695F7F4F86810E9473320C941F
:10466000172F09851A85E0916F0FF091700FA091B7
:104670006F0FB091700F0280F381E02D12966D9153
:104680007C911397695F7F4F86810E947332081770
:10469000190709F1EEEEFE2E0C94172F8B819C81E9
:1046A0004A2D5B2D0E94B03A882319F0F82E0C9405
:1046B000172FE0916F0FF091700FA281B3818D8160
:1046C0009E811F96ED91FC91509781939193509606
:1046D000FC93EE931F9769857A85615070407A87C5
:1046E000698777FFDBCF0C94A316E0916F0FF091F1
:1046F000700FA0916F0FB091700F0280F381E02DC9
:1047000012966D917C911397695F7F4F86810E940D
:1047100073329A878987E0916F0FF091700F028052
:10472000F381E02D0784F089E02D3297808191811B
:104730006A2D7B2D0E94E43AF82EFFEE8F1711F0C0
:104740000C94D72BE0916F0FF091700F0280F381E2
:10475000E02D878590890297908B8787E0916F0F76
:10476000F091700F0280F381E02D8781908529857B
:104770003A85820F931F9087878303C6E0916F0F5E
:10478000F091700FA0916F0FB091700F0280F381C4
:10479000E02D12966D917C911397695F7F4F868112
:1047A0000E9473329A878987E0916F0FF091700FA2
:1047B0000280F381E02D0784F089E02D329701908B
:1047C000F081E02D8081918180709E7380509041B6
:1047D000B9F0E0916F0FF091700F0280F381E02D3E
:1047E0000784F089E02D32970190F081E02D8081DF
:1047F000918180709E7380509C4011F00C945E2FCC
:10480000E0916F0FF091700F0280F381E02D07842B
:10481000F089E02D32970190F081E02DA481B581DF
:10482000BE83AD838D919C91119780709E73805053
:10483000964211F00C94552FE0916F0FF091700F8C
:104840000280F381E02D0480F581E02D0280F38168
:10485000E02D0480F581E02D89859A850296880FE8
:10486000991FE80FF91F6081718178876F83E0914C
:104870006F0FF091700F0280F381E02D0784F089B3
:10488000E02D3497408151818A2F9B2F0E94534FF6
:10489000F82E882311F00C94172FE0916F0FF091F0
:1048A000700F0280F381E02D878590890497E1C025
:1048B000E0916F0FF091700FA0916F0FB091700F9A
:1048C0000280F381E02D12966D917C911397695FC0
:1048D0007F4F86810E9473329A878987E0916F0F9C
:1048E000F091700F0280F381E02D0784F089E02DB4
:1048F00032970190F081E02D8081918180709E73CC
:1049000080509041B9F0E0916F0FF091700F0280EC
:10491000F381E02D0784F089E02D32970190F0813A
:10492000E02D8081918180709E7380509C4011F0B9
:104930000C945E2FE0916F0FF091700F0280F38165
:10494000E02D0784F089E02D32970190F081E02D71
:10495000A481B581BE83AD838D919C9111978070A8
:104960009E738050964211F00C94552FE0916F0F7A
:10497000F091700F0280F381E02D0480F581E02D2D
:104980000280F381E02D0480F581E02D89859A85F0
:104990000296880F991FE80FF91F6081718178874F
:1049A0006F838A2F9B2F0E94144FF82E88EEF816E3
:1049B00009F051C00C945E2FE0916F0FF091700FD1
:1049C000A0916F0FB091700F0280F381E02D1296CD
:1049D0006D917C911397695F7F4F86810E9473323E
:1049E000282F392F3A872987E0916F0FF091700FA8
:1049F0000280F381E02D0480F581E02D0280F381B7
:104A0000E02D0480F581E02D2E5F3F4F220F331FF4
:104A1000E20FF31F608171817E836D83E0916F0FE0
:104A2000F091700FA0916F0FB091700F8281938100
:104A30001296ED91FC9113970784F089E02D32973F
:104A400040815181A82FB92F1D968D919C911E9761
:104A50000E94534FF82EFF2011F00C94172FE09175
:104A60006F0FF091700F0280F381E02D87859089A0
:104A70000297908B87870C94A316E0916F0FF091AB
:104A8000700FA0916F0FB091700F0280F381E02D35
:104A900012966D917C911397695F7F4F86810E947A
:104AA0007332282F392F3A872987E0916F0FF091C1
:104AB000700F0280F381E02D0480F581E02D0280EB
:104AC000F381E02D0480F581E02D2E5F3F4F220F12
:104AD000331FE20FF31F608171817E836D83E0914C
:104AE0006F0FF091700F0280F381E02D8585968520
:104AF0000E94144FF82E0C94672EE0916F0FF091E6
:104B0000700FA0916F0FB091700F0280F381E02DB4
:104B100012966D917C911397695F7F4F86810E94F9
:104B200073329A878987E0916F0FF091700F02803E
:104B3000F381E02D0784F089E02D329720813181C7
:104B40003C832B83E0916F0FF091700F0280F38113
:104B5000E02D0784F089E02D3497208131813E8358
:104B60002D83E0916F0FF091700F0280F381E02DA3
:104B70000784F089E02D36972081318138872F8393
:104B8000039784F0E0916F0FF091700FA281B381D1
:104B90001F96ED91FC915097219331935096FC9381
:104BA000EE931F9789859A85029794F0E0916F0F95
:104BB000F091700FA281B3818D819E811F96ED913E
:104BC000FC915097819391935096FC93EE931F978D
:104BD00089859A85181619060CF46BC10C94A316D6
:104BE000E0916F0FF091700FA0916F0FB091700F67
:104BF0000280F381E02D12966D917C911397695F8D
:104C00007F4F86810E947332282F392F3A87298758
:104C1000E0916F0FF091700FA281B381E0916F0F5F
:104C2000F091700F0280F381E02D0480F581E02D7A
:104C30000280F381E02D0680F781E02D2E5F3F4F4B
:104C400048C6E0916F0FF091700FA0916F0FB09177
:104C5000700F0280F381E02D12966D917C91139775
:104C6000695F7F4F86810E947332282F392F3A87E0
:104C70002987E0916F0FF091700F0280F381E02D92
:104C80000480F581E02D0280F381E02D0480F58120
:104C9000E02D2E5F3F4F220F331FE20FF31F608185
:104CA00071817C836B83E0916F0FF091700F0280B4
:104CB000F381E02D838594854A2D5B2D0E94B94EAA
:104CC000F82EB8EE8B1709F072C5E0916F0FF091D6
:104CD000700F0280F381E02D6B817C818585968544
:104CE0004A2D5B2D0E94B94EF82EE8EE8E1709F082
:104CF0005EC58091400F9091410F892B11F40C9467
:104D0000172F8091400F9091410F6B817C814A2D2C
:104D10005B2D0E94B94EF82EF8EE8F1709F047C5AB
:104D20000C94582FE0916F0FF091700FA0916F0FBE
:104D3000B091700F0280F381E02D12966D917C91FD
:104D40001397695F7F4F86810E9473329A878987A4
:104D5000662D772D0E948041F82E882311F00C9447
:104D6000172F1BC0E0916F0FF091700FA281B381DC
:104D70001F96ED91FC91509732975096FC93EE93CD
:104D80001F974F5F5F4F440F551F240F351F8081C2
:104D90009181A22FB32F8D939C9349855A85842F9F
:104DA000952F01979A8789872B813C8197FFDACFCE
:104DB00055C0E0916F0FF091700FA0916F0FB091FF
:104DC000700F0280F381E02D12966D917C91139704
:104DD000695F7F4F86810E9473329A878987862D0B
:104DE000972D0E94E130F82E882311F00C94172F94
:104DF0002CC0822F932F682D792D0E941212E091E2
:104E00006F0FF091700F0280F381E02D0784F0891D
:104E1000E02D3297408151818B819C8160E070E070
:104E20000E94FE30182F89810E942912112309F057
:104E3000A2C7E0916F0FF091700F0280F381E02D17
:104E4000878590890297908B878789859A850197B6
:104E50009A8789872B813C8197FFCBCFE0916F0F99
:104E6000F091700FA281B3811F96ED91FC91509744
:104E700021933193D4C7E0916F0FF091700FA091FF
:104E80006F0FB091700F0280F381E02D12966D913B
:104E90007C911397695F7F4F86810E9473329A8756
:104EA0008987862D972D0E94A350F82E882309F01C
:104EB000BEC7E0916F0FF091700FA281B3818B811B
:104EC0009C81A7C7E0916F0FF091700FA0916F0FB9
:104ED000B091700F0280F381E02D12966D917C915C
:104EE0001397695F7F4F86810E9473329A87898703
:104EF000E0916F0FF091700F0280F381E02D078435
:104F0000F089E02D32970190F081E02D8081918130
:104F100080709E7380509041B1F0E0916F0FF091DE
:104F2000700F0280F381E02D0784F089E02D329725
:104F30000190F081E02D8081918180709E7380507E
:104F40009C4009F0BBC7E0916F0FF091700F028099
:104F5000F381E02D0784F089E02D32970190F081F4
:104F6000E02DA481B581BC83AB838D919C91119779
:104F700080709E738050964209F097C7E0916F0F42
:104F8000F091700F0280F381E02D0480F581E02D17
:104F90000280F381E02D0480F581E02D89859A85DA
:104FA0000296880F991FE80FF91F608171817E8337
:104FB0006D838A2F9B2F4C2D5D2D0E94B94EF82EAC
:104FC00028EE821709F47AC7FF2009F030C7E09174
:104FD0006F0FF091700F0280F381E02D0784F0894C
:104FE000E02D32978F8198850C948417E0916F0F94
:104FF000F091700FA0916F0FB091700F0280F3814C
:10500000E02D12966D917C911397695F7F4F868199
:105010000E947332282F392F3A872987E0916F0F2A
:10502000F091700F0280F381E02D0784F089E02D6C
:1050300032970190F081E02D8081918180709E7384
:1050400080509240B1F0E0916F0FF091700F0280AC
:10505000F381E02D0784F089E02D32970190F081F3
:10506000E02D8081918180709E7380509E4109F077
:10507000EFC0E0916F0FF091700F0280F381E02D8F
:105080000784F089E02D34970190F081E02D808134
:10509000918180709E7380509240B1F0E0916F0FCB
:1050A000F091700F0280F381E02D0784F089E02DEC
:1050B00034970190F081E02D8081918180709E7302
:1050C00080509E4109F0C4C0E0916F0FF091700FC5
:1050D0000280F381E02D0784F089E02D3497019060
:1050E000F081E02D4281538164817581E0916F0FE1
:1050F000F091700F0280F381E02D0784F089E02D9C
:1051000032970190F081E02D82819381A481B58155
:105110002430310509F440C0253031058CF42130AC
:10512000310529F1223031051CF4232BC9F0BDC60D
:105130002230310519F12330310509F0B6C625C0FA
:10514000283031052CF4263031050CF0BAC62BC0BE
:105150002830310579F12930310509F0A6C64BC058
:10516000481759076A077B070CF06AC064C08417A8
:105170009507A607B7070CF463C05DC04817590729
:105180006A077B0709F05CC056C0481759076A07D1
:105190007B0709F050C054C084179507A607B707CE
:1051A0000CF04EC048C0481759076A077B070CF43B
:1051B00047C041C0E0916F0FF091700F80916F0F69
:1051C0009091700F0280F381E02DA785B08912972E
:1051D000E82FF92F82819381E82FF92F8785908915
:1051E00004972D913C91A82FB92F8D919C91281750
:1051F000390731F520C0E0916F0FF091700F809169
:105200006F0F9091700F0280F381E02DA785B08918
:105210001297E82FF92F82819381E82FF92F878544
:10522000908904972D913C91A82FB92F8D919C9135
:105230002817390729F080913C0F90913D0F04C049
:1052400080913A0F90913B0F282F2F8398877EC033
:10525000223031050CF429C6243031053CF02650AB
:1052600030402230310508F020C635C080913A0F19
:1052700090913B0F98878F83E0916F0FF091700FA3
:1052800080916F0F9091700F0280F381E02DA785C0
:10529000B0891297E82FF92F82819381E82FF92F97
:1052A000878590890497E82FF92F608171818D910E
:1052B0009C910E945D35882331F489859A850297F7
:1052C00009F044C03DC08F3F09F040C089859A85F0
:1052D0000397E1F535C080913A0F90913B0F988785
:1052E0008F83E0916F0FF091700F80916F0F90910D
:1052F000700F0280F381E02DA785B0891297E82F07
:10530000F92F82819381E82FF92F8785908904975F
:10531000E82FF92F608171818D919C910E94AC35AD
:10532000F82E882329F489859A85069779F408C090
:10533000FFEF8F1709F079C589859A85079731F4B2
:1053400080913C0F90913D0F98878F83E0916F0F74
:10535000F091700F0280F381E02D8785908902978C
:10536000908B8787E0916F0FF091700F0280F3812F
:10537000E02D0784F089E02D32978F819885918305
:105380008083FF240C94A316E0916F0FF091700FAF
:10539000A0916F0FB091700F0280F381E02D1296F3
:1053A0006D917C911397695F7F4F86810E94733264
:1053B000282F392F3A872987E0916F0FF091700FCE
:1053C0000280F381E02D0480F581E02D0280F381DD
:1053D000E02D0480F581E02D2E5F3F4F220F331F1B
:1053E000E20FF31F608171817C836B83E0916F0F0B
:1053F000F091700F0280F381E02D878590890297EC
:10540000908B8787E0916F0FF091700F0280F3818E
:10541000E02D858596854A2D5B2D0E94B94EF82E8C
:105420008823C9F4AD81BE818D919C9111978070C4
:105430009E7380509C4079F4E0916F0FF091700F53
:105440000280F381E02D0784F089E02D3297B1834B
:10545000A0830C94A3168B819C816A2D7B2D0E94C6
:105460009C33F82E882309F0E2C4E0916F0FF0918D
:10547000700F0280F381E02D0784F089E02D3297D0
:105480008D819E81918380838D819E81682D792D70
:105490000E9412128D819E816C2D7D2D0E94D15013
:1054A000F82E89810E942912FF2009F0C0C4A09122
:1054B0006F0FB091700FEF81F88512968D919C91CE
:1054C00013979383828381898160818BE0916F0F31
:1054D000F091700F8F819885938382830C94A3162B
:1054E000E0916F0FF091700F0280F381E02D07843F
:1054F000F089E02D3297808191819C838B83E091AC
:105500006F0FF091700FA0916F0FB091700F02802C
:10551000F381E02D12966D917C911397695F7F4F17
:1055200086810E947332282F392F3A872987E0918C
:105530006F0FF091700F0280F381E02D0480F581F0
:10554000E02D0280F381E02D0480F581E02D2E5FB7
:105550003F4F220F331FE20FF31F608171817E8363
:105560006D83EB81FC81848195814C2D5D2D0E94A2
:10557000B94EF82E882309F05AC4E0916F0FF091CC
:10558000700FA281B3818F81988543C4E0916F0F22
:10559000F091700FA0916F0FB091700F0280F381A6
:1055A000E02D12966D917C911397695F7F4F8681F4
:1055B0000E9473329A878987E0916F0FF091700F84
:1055C0000280F381E02D27813085280F391F308735
:1055D00027830C94A316E0916F0FF091700FA091A8
:1055E0006F0FB091700F0280F381E02D12966D91D4
:1055F0007C911397695F7F4F86810E9473329A87EF
:105600008987E0916F0FF091700F0280F381E02D98
:105610000784F089E02D3297808191810E94F633D2
:10562000882311F40C94A31629C0E0916F0FF09118
:10563000700FA0916F0FB091700F0280F381E02D79
:1056400012966D917C911397695F7F4F86810E94BE
:1056500073329A878987E0916F0FF091700F028003
:10566000F381E02D0784F089E02D329780819181CC
:105670000E94F633882311F00C94A316E0916F0F6B
:10568000F091700F0280F381E02D8781908529854C
:105690003A85820F931F908787830C94A316E0911D
:1056A0006F0FF091700FA0916F0FB091700F02808B
:1056B000F381E02D12966D917C911397695F7F4F76
:1056C00086810E9473329A878987E0916F0FF091EB
:1056D000700FA0916F0FB091700F4281538112969D
:1056E000ED91FC9113970480F581E02D0280F38108
:1056F000E02D20853185280F391FA42FB52F18964E
:105700003C932E9317970C94A316E0916F0FF09192
:10571000700FA0916F0FB091700F0280F381E02D98
:1057200012966D917C911397695F7F4F86810E94DD
:105730007332282F392F3A872987E0916F0FF09124
:10574000700F0280F381E02D0480F581E02D02804E
:10575000F381E02D0480F581E02D2E5F3F4F220F75
:10576000331FE20FF31F608171817C836B83E091B3
:105770006F0FF091700F0280F381E02D8585968583
:105780004A2D5B2D0E94B94EF82EB8EE8B1779F496
:105790008091400F9091410F6B817C814A2D5B2D50
:1057A0000E94B94EF82EE8EE8E1709F481C3FF204F
:1057B00009F427C33CC3E0916F0FF091700FA091E3
:1057C0006F0FB091700F0280F381E02D12966D91F2
:1057D0007C911397695F7F4F86810E9473329A870D
:1057E000898789E090E06C2F7D2F655F7F4F0E9455
:1057F000CB13F82E882309F01AC3AB85BC85BC8374
:10580000AB838D919C911197917C946311969C939D
:105810008E93E0916F0FF091700F0280F381E02D75
:105820008785908913969C938E931297E0916F0FC2
:10583000F091700F0280F381E02D8781908529859A
:105840003A85820F931F15969C938E931497169604
:10585000EC921697E0916F0FF091700F0280F38138
:10586000E02D8185928518969C938E931797E091F1
:105870006F0FF091700F0280F381E02DB287A18746
:105880000C94A316E0916F0FF091700FA0916F0F21
:10589000B091700F0280F381E02D12966D917C9192
:1058A0001397695F7F4F86810E947332282F392FAB
:1058B0003A872987E0916F0FF091700FA281B38131
:1058C000E0916F0FF091700F0280F381E02D275F60
:1058D0003F4F220F331FE20FF31F8081918199C246
:1058E000E0916F0FF091700FA0916F0FB091700F5A
:1058F0000280F381E02D12966D917C911397695F80
:105900007F4F86810E947332282F392F3A8729874B
:10591000E0916F0FF091700F42815381E0916F0F12
:10592000F091700FA281B3811F96ED91FC91509779
:1059300032975096FC93EE931F97275F3F4F220FAD
:10594000331F420F531F80819181A42FB52F8D9358
:105950009C930C94A316E0916F0FF091700FA0919F
:105960006F0FB091700F0280F381E02D12966D9150
:105970007C911397695F7F4F86810E947332282F35
:10598000392F3A872987E0916F0FF091700F80913E
:10599000320F9091330F0280F381E02D275F3F4F4C
:1059A000220F331FE20FF31F0C948417E0916F0F47
:1059B000F091700FA0916F0FB091700F0280F38182
:1059C000E02D12966D917C911397695F7F4F8681D0
:1059D0000E947332282F392F9A8789878070892BEC
:1059E00009F063C2E0916F0FF091700F0280F381B4
:1059F000E02D20953095220F331F0784F089E02D8C
:105A0000E20FF31F808191819C838B83682D792D18
:105A10000E941212AB81BC818D919C911197807074
:105A20009E738050904119F00DEEF02E4DC11296EC
:105A3000ED91FC9113978081918180709E73892FE5
:105A4000992786958530910509F0B1C09385189600
:105A5000ED91FC911997309711F4492F03C0828181
:105A6000492F481B29853A853070892F90E082178D
:105A700093070CF426C2042F112707FD1095201759
:105A800031070CF41EC28A2F9B2F6A2D7B2D0E949A
:105A9000D150F82E8D819E81622D732D0E9412129D
:105AA000FF2009F011C1EB81FC8180859185892B54
:105AB00009F44CC040E050E01CC0AD81BE81275FBE
:105AC0003F4F220F331FA20FB31FE62FF72F208562
:105AD00031854E5F5F4F842F952F880F991F280FB8
